:100000000A128A11942F00308A000408840A820799
:100010000034283445346D346234653454347234D9
:100020006F346E3469346334583429343A342034AC
:1000300045346E3474346534723420347434683426
:10004000653420346C3465347434743465347234FB
:100050007334203469346E3420346B34653479342D
:1000600062346F346134723464340A340D340D34C4
:0200700000345A
:100F280083010A128A11C02F992F831203138C1E72
:100F38009E2F9F2F992F8C121A08A22F0800F000BD
:100F48007008831203139900A92F0C1EAC2FAD2F24
:100F5800A92F0C1208002030831603139800903034
:100F68008312031398001130831603139900831218
:100F780003138C120C120800831603130713871728
:100F88000A128A11AF270A128A1101300A128A112D
:100F9800DF270A128A11D02F0A128A1198270A12FB
:100FA8008A110A128A11A3270A128A11D02FD02F68
:100FB8000A128A110028F200F22F720884000A121D
:100FC8008A1103200A128A110A128A11A3270A1207
:100FD8008A110130F1007108F207F22F72088400BB
:100FE8000A128A1103200A128A110038031DFD2FE4
:080FF800FE2FE12FFF2F08007E
:00000001FF
